{"abi":[{"type":"constructor","inputs":[],"stateMutability":"nonpayable"},{"type":"function","name":"DEFAULT_EXCHANGE_RATE","inputs":[],"outputs":[{"name":"","type":"uint256","internalType":"uint256"}],"stateMutability":"view"},{"type":"function","name":"owner","inputs":[],"outputs":[{"name":"","type":"address","internalType":"address"}],"stateMutability":"view"},{"type":"function","name":"priceIndex","inputs":[{"name":"","type":"address","internalType":"address"}],"outputs":[{"name":"","type":"uint256","internalType":"uint256"}],"stateMutability":"view"},{"type":"function","name":"setPriceIndexValue","inputs":[{"name":"_tokenAddress","type":"address","internalType":"address"},{"name":"_exchangeRate","type":"uint256","internalType":"uint256"}],"outputs":[{"name":"","type":"uint256","internalType":"uint256"}],"stateMutability":"nonpayable"},{"type":"function","name":"supportsInterface","inputs":[{"name":"_sum","type":"bytes4","internalType":"bytes4"}],"outputs":[{"name":"","type":"bool","internalType":"bool"}],"stateMutability":"pure"},{"type":"function","name":"transferOwnership","inputs":[{"name":"_newOwner","type":"address","internalType":"address"}],"outputs":[{"name":"","type":"bool","internalType":"bool"}],"stateMutability":"nonpayable"},{"type":"function","name":"valueFor","inputs":[{"name":"_outToken","type":"address","internalType":"address"},{"name":"_inToken","type":"address","internalType":"address"},{"name":"_value","type":"uint256","internalType":"uint256"}],"outputs":[{"name":"","type":"uint256","internalType":"uint256"}],"stateMutability":"nonpayable"},{"type":"event","name":"OwnershipTransferred","inputs":[{"name":"previousOwner","type":"address","indexed":true,"internalType":"address"},{"name":"newOwner","type":"address","indexed":true,"internalType":"address"}],"anonymous":false},{"type":"event","name":"PriceIndexUpdated","inputs":[{"name":"_tokenAddress","type":"address","indexed":false,"internalType":"address"},{"name":"_exchangeRate","type":"uint256","indexed":false,"internalType":"uint256"}],"anonymous":false}],"bytecode":{"object":"0x608060405234801561001057600080fd5b50600080546001600160a01b031916331790556108a0806100326000396000f3fe608060405234801561001057600080fd5b506004361061007d5760003560e01c80638da5cb5b1161005b5780638da5cb5b146100e1578063dbb21d401461010c578063ebc59dff1461011f578063f2fde38b1461013257600080fd5b806301ffc9a71461008257806362dfa4a5146100aa57806379e25f3a146100c1575b600080fd5b6100956100903660046105f6565b610145565b60405190151581526020015b60405180910390f35b6100b361271081565b6040519081526020016100a1565b6100b36100cf36600461063c565b60016020526000908152604090205481565b6000546100f4906001600160a01b031681565b6040516001600160a01b0390911681526020016100a1565b6100b361011a366004610657565b6101af565b6100b361012d366004610693565b610492565b61009561014036600461063c565b61053a565b60006001600160e01b031982166301ffc9a760e01b0361016757506001919050565b6001600160e01b03198216634a49fc5960e11b0361018757506001919050565b6001600160e01b0319821663036ec87560e61b036101a757506001919050565b506000919050565b6001600160a01b038216600090815260016020526040812054819081908190606090612710908190156101f8576001600160a01b03891660009081526001602052604090205491505b6001600160a01b038a166000908152600160205260409020541561023157506001600160a01b0389166000908152600160205260409020545b60408051600481526024810182526020810180516001600160e01b031663313ce56760e01b17905290516001600160a01b038c169161026f916106bd565b6000604051808303816000865af19150503d80600081146102ac576040519150601f19603f3d011682016040523d82523d6000602084013e6102b1565b606091505b509094509250836102f95760405162461bcd60e51b815260206004820152600d60248201526c11549497d513d2d15397d3d555609a1b60448201526064015b60405180910390fd5b8280602001905181019061030d91906106ec565b60408051600481526024810182526020810180516001600160e01b031663313ce56760e01b17905290519197506001600160a01b038b169161034f91906106bd565b6000604051808303816000865af19150503d806000811461038c576040519150601f19603f3d011682016040523d82523d6000602084013e610391565b606091505b509094509250836103d35760405162461bcd60e51b815260206004820152600c60248201526b22a9292faa27a5a2a72fa4a760a11b60448201526064016102f0565b828060200190518101906103e791906106ec565b94508560ff168560ff160361040e576104018883836105d7565b965050505050505061048b565b60008660ff168660ff1611610437576104278688610725565b61043290600a610822565b61044c565b6104418787610725565b61044c90600a610822565b90508660ff168660ff16111561047e57610470610469828b610831565b84846105d7565b97505050505050505061048b565b610470610469828b610853565b9392505050565b600080546001600160a01b031633146104dd5760405162461bcd60e51b815260206004820152600d60248201526c22a9292fa727aa2fa7aba722a960991b60448201526064016102f0565b6001600160a01b038316600081815260016020908152604091829020859055815192835282018490527fdb9ce1a76955721ca61ac50cd1b87f9ab8620325c8619a62192c2dc7871d56b1910160405180910390a150805b92915050565b6000805481906001600160a01b031633146105815760405162461bcd60e51b815260206004820152600760248201526608aa4a4be82b0b60cb1b60448201526064016102f0565b50600080546001600160a01b038481166001600160a01b0319831681178455604051919092169283917f8be0079c531659141344cd1fd0a4f28419497f9722a3daafe3b4186f6b6457e09190a350600192915050565b6000816105e48486610853565b6105ee9190610831565b949350505050565b60006020828403121561060857600080fd5b81356001600160e01b03198116811461048b57600080fd5b80356001600160a01b038116811461063757600080fd5b919050565b60006020828403121561064e57600080fd5b61048b82610620565b60008060006060848603121561066c57600080fd5b61067584610620565b925061068360208501610620565b9150604084013590509250925092565b600080604083850312156106a657600080fd5b6106af83610620565b946020939093013593505050565b6000825160005b818110156106de57602081860181015185830152016106c4565b506000920191825250919050565b6000602082840312156106fe57600080fd5b815160ff8116811461048b57600080fd5b634e487b7160e01b600052601160045260246000fd5b60ff82811682821603908111156105345761053461070f565b600181815b8085111561077957816000190482111561075f5761075f61070f565b8085161561076c57918102915b93841c9390800290610743565b509250929050565b60008261079057506001610534565b8161079d57506000610534565b81600181146107b357600281146107bd576107d9565b6001915050610534565b60ff8411156107ce576107ce61070f565b50506001821b610534565b5060208310610133831016604e8410600b84101617156107fc575081810a610534565b610806838361073e565b806000190482111561081a5761081a61070f565b029392505050565b600061048b60ff841683610781565b60008261084e57634e487b7160e01b600052601260045260246000fd5b500490565b80820281158282048414176105345761053461070f56fea2646970667358221220c95d2912de35f6d8fef71f23173dd80d2d8e8afa4f145cffee0fa3394884474464736f6c63430008180033","linkReferences":{}},"methodIdentifiers":{"DEFAULT_EXCHANGE_RATE()":"62dfa4a5","owner()":"8da5cb5b","priceIndex(address)":"79e25f3a","setPriceIndexValue(address,uint256)":"ebc59dff","supportsInterface(bytes4)":"01ffc9a7","transferOwnership(address)":"f2fde38b","valueFor(address,address,uint256)":"dbb21d40"},"id":0}